{"abi":[{"type":"fallback","stateMutability":"payable"},{"type":"receive","stateMutability":"payable"},{"type":"function","name":"WITHDRAWAL_AMOUNT","inputs":[],"outputs":[{"name":"","type":"uint256","internalType":"uint256"}],"stateMutability":"view"},{"type":"function","name":"claim","inputs":[{"name":"recipient","type":"address","internalType":"address payable"}],"outputs":[],"stateMutability":"nonpayable"},{"type":"function","name":"getContractBalance","inputs":[],"outputs":[{"name":"","type":"uint256","internalType":"uint256"}],"stateMutability":"view"},{"type":"event","name":"Received","inputs":[{"name":"sender","type":"address","indexed":true,"internalType":"address"},{"name":"amount","type":"uint256","indexed":false,"internalType":"uint256"}],"anonymous":false},{"type":"event","name":"Withdrawn","inputs":[{"name":"recipient","type":"address","indexed":true,"internalType":"address"},{"name":"amount","type":"uint256","indexed":false,"internalType":"uint256"}],"anonymous":false},{"type":"error","name":"InsufficientBalance","inputs":[]},{"type":"error","name":"TransferFailed","inputs":[]}],"bytecode":{"object":"0x608060405234801561001057600080fd5b5060016000556102cb806100256000396000f3fe6080604052600436106100385760003560e01c80631e83409a146100a75780636f9fb98a146100c957806384860633146100ea57610075565b366100755760405134815233907f88a5966d370b9919b20f3e2c13ff65706f196a4e32cc2c12bf57088f88525874906020015b60405180910390a2005b60405134815233907f88a5966d370b9919b20f3e2c13ff65706f196a4e32cc2c12bf57088f885258749060200161006b565b3480156100b357600080fd5b506100c76100c2366004610265565b610105565b005b3480156100d557600080fd5b50475b60405190815260200160405180910390f35b3480156100f657600080fd5b506100d86611c37937e0800081565b61010d610208565b6611c37937e0800047101561013557604051631e9acf1760e31b815260040160405180910390fd5b6000816001600160a01b03166611c37937e0800060405160006040518083038185875af1925050503d8060008114610189576040519150601f19603f3d011682016040523d82523d6000602084013e61018e565b606091505b50509050806101b0576040516312171d8360e31b815260040160405180910390fd5b816001600160a01b03167f7084f5476618d8e60b11ef0d7d3f06914655adb8793e28ff7f018d4c76d505d56611c37937e080006040516101f291815260200190565b60405180910390a2506102056001600055565b50565b60026000540361025e5760405162461bcd60e51b815260206004820152601f60248201527f5265656e7472616e637947756172643a207265656e7472616e742063616c6c00604482015260640160405180910390fd5b6002600055565b60006020828403121561027757600080fd5b81356001600160a01b038116811461028e57600080fd5b939250505056fea2646970667358221220392822d66630bafd97c17925dde4472af48258e220b4f4be3dc2caff9b43298864736f6c63430008180033","linkReferences":{}},"methodIdentifiers":{"WITHDRAWAL_AMOUNT()":"84860633","claim(address)":"1e83409a","getContractBalance()":"6f9fb98a"},"id":1}